:020000041000EA
:1000000000B5324B212058609868022188439860DF
:10001000D860186158612E4B002199600221596106
:100020000121F02299502B49196001219960352056
:1000300000F044F80222904214D00621196600F024
:1000400034F8196E01211966002018661A6600F04E
:100050002CF8196E196E196E052000F02FF8012189
:100060000842F9D1002199601B49196000215960AB
:100070001A491B48016001219960EB211966A021F2
:10008000196600F012F800219960164914480160C1
:100090000121996001BC002800D000471248134993
:1000A000086003C880F30888084703B5996A0420EC
:1000B0000142FBD001200142F8D103BD02B5186610
:1000C0001866FFF7F2FF186E186E02BD00000240BE
:1000D000000000180000070000035F00212200005C
:1000E000F4000018222000A00001001008ED00E03C
:1000F00000000000000000000000000074B24E7A12
:1001000000200420F7010010C3010010C5010010F9
:10011000C1010010C1010010C1010010C101001097
:10012000C1010010C1010010C1010010C701001081
:10013000C1010010C1010010C9010010CB01001065
:10014000CD010010CD010010CD010010CD01001037
:10015000CD010010CD010010CD010010CD01001027
:10016000CD010010CD010010CD010010CD01001017
:10017000CD010010CD010010CD010010CD01001007
:10018000CD010010CD010010CD010010CD010010F7
:10019000CD010010CD010010CD010010CD010010E7
:1001A000CD010010CD010010CD010010CD010010D7
:1001B000CD010010CD010010CD010010CD010010C7
:1001C00000BE00BE00BE00BE00BE00BE00F04BF888
:1001D000103800BEF2EB887178AE001098AE0010B7
:1001E0003402001090A31AE700202149086006C8D5
:1001F00081F3088810471F48006800282FD10DA4FC
:100200000ECC002902D000F012F8F9E71A491B4A77
:10021000002000E001C19142FCD1194988471949E9
:1002200088471949884700BEFDE701C901C29A42C3
:10023000FBD3704798AE0010C0000020A80D00202E
:1002400080BB0010000004200000042080BB0010D0
:1002500000100420001004200000000070470B482C
:1002600004F0EEFA0047EFF30580C0B270470000DB
:1002700008ED00E0000000D0A80D0020E01B0020E9
:100280006D310010B10500102931001057560000E3
:1002900006005250ABB3605398A4001006005250B1
:1002A000861C0302B8A40010060052505422A29DDE
:1002B000C0A4001005005250DE65F46880BB001039
:1002C000F8B5C0460448054B10B5834203D0044B33
:1002D000002B00D0984710BDA80D0020A80D0020CD
:1002E0000000000006480749091A8B10C90FC918F9
:1002F00010B5491003D0044B002B00D0984710BD17
:10030000A80D0020A80D00200000000010B5074C2B
:100310002378002B09D1FFF7D5FF054B002B02D026
:10032000044800E000BF0123237010BDB00E002080
:1003300000000000B08B0010054B10B5002B03D05F
:100340000449054800E000BFFFF7CCFF10BDC046E0
:1003500000000000B40E0020B08B0010F0B585B096
:1003600001AA2E4B13CB13C202E00A3002F0C2FAEC
:10037000002006F0CFFF0028F7D0294801F0A6F8AA
:10038000051E43D0274805F041F8274805F03EF800
:1003900005F07EF8C4B2313C67426741FFB23900D4
:1003A000224805F065F81E4E01220121300000F0C0
:1003B00097FD0421300000F098FB7900C91949002D
:1003C00001AB9C466144300000F0C6FC631E9C41BA
:1003D00062001219520001AB9C46624401213000B8
:1003E00000F0E4FC124B1B78002B13D00C4800F0FB
:1003F000C9FB0B4C200000F0EDFD200000F08EFE4C
:100400000C4805F003F8280005B0F0BD0A4804F0D8
:10041000FDFFF8E7024800F01DFDEAE7548E0010EA
:1004200030190020D48B0010F88B0010308C001095
:1004300068040020448C0010B08B0010F0B585B02B
:100440004D4B1B78002B50D002F0F0FA04000D1E2B
:100450003BDB042249494A4800F05CFC060002F0FC
:10046000E5FA02000B1E36DB002E3AD0121BAB4120
:1004700016001F00414C206804F0F6FD0090019129
:1004800032003B003F4804F0F3FF206804F0ECFD2D
:100490003D4A3E4B04F070FC04F03EFD2060FA2023
:1004A000800002F027FA002005F012F8C0B25428AC
:1004B0003BD0742839D0522845D0722843D06228C6
:1004C0004FD042284DD005B0F0BD314B314A3F21CD
:1004D000314802F02DFE2E4B2E4A3F212E4802F0CD
:1004E00027FE2E4804F092FFD9E70F2169442448E3
:1004F00000F015FC0028D6D0214E300000F012FB91
:1005000004001E4D02002900300000F01AFC0F23E9
:100510006B441E78286804F0A7FD0090019132001A
:1005200021001F4804F0A4FFBDE7134B1B78002BEC
:10053000C1D1114B01221A701A4804F067FF10480C
:1005400000F020FBBFE70C4B1B78002BB7D00A4B09
:1005500000221A70144804F059FF094800F07AFC90
:10056000B1E7074800F038FB104804F069F90300D0
:10057000002108009847C046680400201C1900208C
:1005800030190020548D00107B14AE47E17A843F6F
:100590007C8C0010988C0010D08C0010948D001072
:1005A000B88D0010DC8D0010188E00105542000030
:1005B00010B504F069FFFFF7D1FE0028FBD0FFF76C
:1005C0003DFFFCE770B504000D00012805D0002CAC
:1005D00002D10C4B9D420DD070BD0A4B9942F6D111
:1005E000094800F0D5FF094B0D220921084800F009
:1005F0004FFAECE7064800F0BBFF034800F0B8FFF5
:10060000EAE7C046FFFF0000040F00208096980034
:100610003019002010B502490120FFF7D3FF10BDAB
:10062000FFFF000010B50400408900F094FF606EE9
:10063000002102F033F910BD10B5030000895B8979
:10064000984200D110BD00F086FFFBE7F0B5C6462A
:1006500000B50700884616001D00C06800F0DEFFE8
:1006600000213800FFF7DEFF380031306C1CE4B2A7
:100670003B00323331224146B95403E0FF221A7065
:1006800001330D00691EC9B2002DF7D139001031B8
:10069000220000F0B7FF3B001133397C5222B954DD
:1006A00003E01A78327001330136013CE4B2002CC9
:1006B000F7D101213800FFF7B5FF00F0C3FF80BC80
:1006C000B846F0BD70B504000D00C06800F0A6FF8C
:1006D00000212000FFF7A6FF200031303123E55430
:1006E0000133FF22E25421001031FD3A00F08AFF6D
:1006F000227C5223E254657C01212000FFF792FF07
:1007000000F0A0FF280070BDF8B506000F0015002E
:100710001C00C06800F082FF00213000FFF782FF5C
:1007200030003130621CD2B21F21394020231943DE
:10073000330032333127F15504E02C781C7001333B
:100740000C000135611EC9B2002CF6D13100103108
:1007500000F058FF327C5223F25401213000FFF7A1
:1007600061FF00F06FFFF8BD70B504000D001600CA
:10077000002B14D0C06800F051FF00212000FFF7CB
:1007800051FF20202843C0B200F026FF5223E0543E
:1007900001212000FFF746FF00F054FF70BDC06844
:1007A00000F03CFF00212000FFF73CFF200031302B
:1007B00020210D433123E5540133E654210010314B
:1007C000022200F01FFF227C5223E254012120006C
:1007D000FFF728FF00F036FFE0E7F8B5CE464746C2
:1007E00080B507008846151E99461ED101265E2356
:1007F000FB5C002B1BD15333FE5CAE4200D83500AE
:10080000761BF6B2F86800F009FF00213800FFF708
:1008100009FF38003130AA19D2B20132D2B23C00FD
:10082000323431234946F9540FE00026DFE72B1C10
:10083000202D00D92023DDB2E4E74146097821705C
:10084000013401218C46E0441D006B1EDBB2002DFB
:10085000F3D103E00021217001341E00731EDBB2CE
:10086000002EF7D13900103100F0CCFE3A7C522333
:10087000FA5401213800FFF7D5FE00F0E3FEC0BCBA
:10088000B946B046F8BDF0B5C64600B580460F0083
:1008900014005E23C35C002B1CD15333C55C95420E
:1008A00000D82C002D1BEDB24346D86800F0B6FEF0
:1008B00000214046FFF7B6FE404631306519EAB2E6
:1008C0000132D2B245463235312361214646F154D8
:1008D000130009E0231C202C00D92023DCB20025C2
:1008E000E2E7FF262E700135013BDBB2002BF8D189
:1008F0004146103100F086FE434611334246117CDA
:10090000522240468154002C0AD0013CE4B2002C13
:1009100004D01A783A7001330137F6E71B783B7040
:1009200001214046FFF77EFE00F08CFE80BCB846F9
:10093000F0BD10B504000123FF22E221FFF714FFF0
:100940005223E05C10BD10B504000123FF22E12119
:10095000FFF70AFF5223E05C10BD10B5040001232D
:10096000FF22FF21FFF700FF5223E05C10BD0000D3
:10097000F0B585B08A114B110E114F0801200340CC
:10098000024001250D40029507243C40019430406F
:100990000090024804F06CFD05B0F0BD608E0010C0
:1009A000F0B5C64600B5804617001E000C4804F09E
:1009B0005FFD0BE07D1CEDB239004046FFF782FE83
:1009C0000100084804F054FD26002F00741EE4B214
:1009D000002EEFD1044804F019FD80BCB846F0BDEC
:1009E000A88E0010B08E0010B88E0010F8B5CE465C
:1009F000474680B5060091461C001A4804F038FDB1
:100A00000DE02178184804F033FD013CA542F8D9E7
:100A1000002D02D0280004F0A5FB3C00C146671E53
:100A2000FFB2002C16D05D24305D04F097FB05006A
:100A30004B460133DBB29846335D1F214A461140D5
:100A400002003000FFF702FE084804F011FD345D9B
:100A50002C19DAE7064804F0D9FCC0BCB946B04608
:100A6000F8BDC046A88E0010C08E0010BC8E0010CD
:100A7000B88E001054230022C254034BC2689A421D
:100A800001D8024BC3607047B88800008096980078
:100A9000F8B504000F0016001D0000F079FD278155
:100AA0006681E56053232022E25400233A32A354A6
:100AB0000132A35405330232A35401320121A1545F
:100AC00063662000FFF7D6FF2000F8BD10B50A00CE
:100AD0007C2900D97D2200230521FFF745FE10BDAA
:100AE00010B50521FFF7EEFD10BD70B5050000291A
:100AF00008D00B1C202900D92023DBB25322AB5491
:100B000000240CE00123F9E75323EA5C21001131B2
:100B1000C9B200232800FFF727FE0134E4B2052CF8
:100B2000F2D970BD5323C05C704700000289064BA8
:100B30009A4206D042899A4201D001207047002093
:100B4000FCE70020FAE7C046FFFF000070B5040094
:100B5000FFF7ECFF051E0BD020896389984209D16D
:100B600000212000FFF768FD01212000FFF75AFD5A
:100B7000280070BD012100F0DDFC6089012100F03A
:100B8000D9FCEDE710B504000021FFF755FD236EF9
:100B9000D917180001F082FE5C23E35C002B17D10B
:100BA0005923E25C01218A43E25400230021200002
:100BB000FFF7DAFD02212000FFF784FD42B2012099
:100BC0000243D2B2002302212000FFF7CDFD10BD69
:100BD0002000FFF7B8FEE3E710B504000021FFF79F
:100BE0002BFD5923E25C02218A43E25400230021B9
:100BF0002000FFF7B9FD10BD10B55923C25C930763
:100C000000D510BD02231A43D2B25923C254002387
:100C10000021FFF7A9FD0248002101F03FFEF0E7A7
:100C2000881300005F230122C254704770B504008E
:100C300004A80578002B06D0B0232000FFF7CDFDD7
:100C4000002D02D170BDA023F7E701212000FFF79E
:100C5000F3FCF7E730B583B00400012000902000DA
:100C6000FFF7E4FF01F0E2FE002907DB0CD0FA22D7
:100C70009200002303F07AFE050018E0224B234A7D
:100C80003F21234802F054FAFA21890003F02CFE98
:100C900005000CE01C4B1D4A3F211D4802F048FA9C
:100CA000FA21890003F020FE401B5F2810D82000A5
:100CB000FFF753FE3023034210D101F0B7FE0029A5
:100CC000E8DBEDD0FA229200002303F04FFEEBE7C1
:100CD0002000FFF7A7FF002003B030BD0021200057
:100CE000FFF7AAFC0023702207212000FFF73CFD3C
:100CF0005223E35CDB0601D40120EDE72000FFF77F
:100D000022FE0020E8E7C0467C8C0010988C001082
:100D1000D08C001010B50023FFF79CFF10BD10B55C
:100D20000C00FFF71AFE400807231840052804D8D6
:100D3000002C04D02070012010BD0020FCE7012011
:100D4000FAE710B50400FFF79EFD002340220721BB
:100D50002000FFF709FD10BD70B504000D005D26F1
:100D6000835D0A000A21FFF7CFFCA35D2A00102152
:100D70002000FFF7C9FC70BD70B504000239C9B28C
:100D800000290AD003250D4000232A000321FFF784
:100D9000EBFC02355D23E55470BD002300220321E6
:100DA000FFF7E2FC5D230222E254F5E770B505008F
:100DB0000C00160000291BD0052C18D8012C21D9B5
:100DC000154B195D012332002800FFF79DFC02211D
:100DD0002800FFF777FC42B2104B1B5D01209840C2
:100DE0000243D2B2002302212800FFF7BDFC70BDF0
:100DF00054305D23EA5C310004F0AAF95B23012240
:100E0000EA54D9E75D23EB5C034A115D3200280008
:100E1000FFF77AFCDBE7C046F89100100092001063
:100E200070B504000D000221FFF74CFC42B2084BE4
:100E3000595D01238B409A43D2B200230221200046
:100E4000FFF792FC002D02D15B230022E25470BD1B
:100E50000092001010B50400FFF7CEFE5923E25CAB
:100E600001210A43D2B2E254002300212000FFF7FF
:100E70007BFC0023702207212000FFF775FC012175
:100E80002000FFF7D9FB5B23E35C002B08D0220096
:100E900054325D23E35C0A212000FFF735FC10BDCE
:100EA00000212000FFF7BCFFF9E710B50400C0687F
:100EB00000F0B4FB00212000FFF7B4FB502000F04D
:100EC0008BFB5223E054732000F086FB01212000AD
:100ED000FFF7A8FB00F0B6FB10BD5A23C05C7047BB
:100EE000E0B505000E0017000621FFF7EBFB072316
:100EF0009843C0B2331C032E00D903235B00DBB23E
:100F0000DB19DAB20243002306212800FFF72CFC8C
:100F1000E0BD10B50621FFF7D5FB401003231840B4
:100F200010BD10B50821FFF7CDFB0F23184010BDF1
:100F300070B505000E000621FFF7C4FB2823984377
:100F4000C4B2F0332B66022E11D0012E14D0002033
:100F500004430023220006212800FFF705FC062198
:100F60002800FFF7AFFBA0420AD0002070BDFA2393
:100F7000FF332B662020EBE7F0232B660820E7E702
:100F80000120F3E710B50621FFF79CFB282318404A
:100F9000202805D0082801D0002010BD0738FCE724
:100FA0000220FAE770B504000121FFF78BFB050072
:100FB00000212000FFF786FB5923E054030701D4EA
:100FC000002D02D0430702D40125280070BD022560
:100FD000FBE7000010B504003B49C06803F084FC47
:100FE000FF210140394804F043FA2000FFF7B5FC27
:100FF00001002000FFF7BCFC02230A223449200034
:10100000FFF7F4FC04230C2232492000FFF7C8FC50
:101010000123102230492000FFF7E8FC06231122AB
:101020002E492000FFF7BCFC012301222C4920009F
:10103000FFF7B6FC012302222A492000FFF7B0FC8B
:101040000123052228492000FFF7AAFC01230622DC
:1010500026492000FFF7A4FC012300222449200098
:10106000FFF79EFC02231C2222492000FFF798FC78
:101070002000FFF787FF80001F4BC1581F4804F076
:10108000F7F92000FFF729FF80001D4BC1581D48CC
:1010900004F0EEF92000FFF785FF80001A4BC158DD
:1010A0001A4804F0E5F92000FFF733FF8000184BE1
:1010B000C158184804F0DCF92000FFF732FF0100A6
:1010C000154804F0D5F910BD40420F00C88E00103D
:1010D000E08E0010F08E0010008F00100C8F0010BA
:1010E000188F0010208F00102C8F0010348F0010EC
:1010F000408F0010488F0010A0920010588F0010F1
:1011000020920010688F0010DC920010788F001081
:1011100058920010888F0010988F0010F0B585B09D
:1011200005008B49C06803F0DFFBFF2101408948BF
:1011300004F09EF92800FFF7D3FC010082B2962349
:101140001B019C46624492B2834804F091F9280046
:10115000FFF7C3FE8000814BC158814804F088F935
:101160002800FFF70FFF80007E4BC1587E4804F037
:101170007FF92800FFF7CDFE80007C4BC1587C48EA
:1011800004F076F906212800FFF79CFA01230340BA
:10119000784E9B009959784804F06AF92800FFF7C7
:1011A00001FF8000754BC158754804F061F90321B7
:1011B0002800FFF787FA032101400231714804F04B
:1011C00057F92800FFF7AEFC01006F4804F050F912
:1011D00004212800FFF776FA04000109C9B20131A1
:1011E000FA235943694804F043F90F272100394095
:1011F000674804F03DF908212800FFF763FA04006E
:101200000109C9B2634804F033F93900214062484A
:1012100004F02EF91D212800FFF754FA04004200C3
:10122000022313409B0099595C4804F021F963089C
:10123000012213409B009959594804F019F91C21C7
:101240002800FFF73FFA002803D0630731D40023BA
:1012500000E000239B00474A9958524804F008F9DF
:1012600001212800FFF72EFA3F2801D0002822D1C3
:10127000431E984180003F4BC1584B4804F0F8F89A
:1012800000212800FFF71EFA5923E854C30737D579
:101290005221464804F0ECF801231022444928006A
:1012A000FFF7A4FB02212800FFF70CFA0600002438
:1012B00032E00123CEE7830616D53121C30615D5CA
:1012C0003122030714D53123440713D5312486076F
:1012D00012D53126C00711D5312002900196009415
:1012E000344804F0C5F8CBE73021E7E73022E8E7DF
:1012F0003023E9E73024EAE73026EBE73020ECE75B
:101300005421C6E722000A32D2B201232A4928001A
:10131000FFF76CFB0134E4B2052C16D80123320030
:101320002241134003339B00124A9A58210023485C
:1013300004F09EF8012CE5D922000A32D2B2012332
:101340001D492800FFF72CFBE4E705B0F0BDC046BF
:1013500040420F00A48F0010C08F00102092001098
:10136000DC8F0010A0920010EC8F0010589200103B
:10137000009000106892001018900010DC9200108D
:101380003490001048900010689000108C9000106D
:10139000B4900010D8900010049100103C910010FF
:1013A0004C910010649100107C910010C0910010CD
:1013B000D891001098910010088F0010E49100104F
:1013C00010B50B1C0F2900D90F23DBB21901131C18
:1013D0000F2A00D90F235AB20A43D2B200230421A4
:1013E000FFF7C2F910BD70B50400052001F082FAC4
:1013F0000F2205212000FFF7E3FF00212000FFF767
:1014000097FD1D212000FFF75DF905002000FFF783
:101410004CFD1D212000FFF755F92D1A6B425D414F
:10142000EDB25A22A554002807D0002D49D100233F
:1014300000221D212000FFF797F900255C23E554C9
:10144000002300221C212000FFF78EF95E23E554C3
:1014500000233F2201212000FFF786F90023032209
:1014600002212000FFF780F920212000FFF73DFB3B
:1014700005212000FFF780FC4C212000FFF726FB10
:101480000023702207212000FFF76EF92000FFF7EC
:1014900050FA2000FFF757FA00230C220021200009
:1014A000FFF762F900212000FFF70CF9593560556C
:1014B0002000FFF7A1FB605D0E3843425841C0B2E7
:1014C00070BD2000FFF7F1FCB1E7000010B504008B
:1014D000064800F079F82000FFF738FB002800D11B
:1014E00010BD2000FFF77FFFFAE7C0460000044070
:1014F00070B504000D00012805D0002C02D1074B67
:101500009D4207D070BD054B9942F6D1044800F0CA
:101510003FF8F2E7024800F02BF8F3E7FFFF000086
:10152000080F002010B502490120FFF7E1FF10BDB0
:10153000FFFF000070B504000D0000F0A3F80123C8
:10154000A340002D03D0D0221206536270BDD022DA
:1015500012069362FAE701238340002903D0D022C8
:10156000120653617047D02212069361FAE7000019
:10157000014B0833036070470493001010B504005A
:10158000FFF7F6FF0421200003F0F0FD200010BD5E
:10159000014B0833036070470493001070B50600D8
:1015A000080015001C00074B1E60012100F052F8D6
:1015B0000121280000F04EF80121200000F04AF837
:1015C00070BDC0460C0F002010B50C230B220A2161
:1015D000FFF7E4FF10BD000000B585B06B46D91DD4
:1015E000087000236A46D373054B186801230F2245
:1015F0006A4407F0CDFA6B46D87B05B000BDC04603
:101600000C0F002010B504001300034A10680A00F4
:10161000210007F0BDFA10BD0C0F002010B501002D
:10162000074C206806F00CFE206802680721514034
:10163000CF220A4080235B0103431A6010BDC046DD
:101640000C0F002010B5024B186806F095FD10BD78
:101650000C0F002010B58300084A944663441C68B0
:1016600040226240C02414408022520113431C6077
:10167000C000034B9C466044416010BD04C0014063
:101680000040014010B501238340D022120693622E
:1016900093610521FFF7DEFF10BD0000EFF310801E
:1016A00072B6034B1B68002BFBD0BFF35F8F7047F4
:1016B0002C0100D0BFF35F8F024B00221A6080F331
:1016C000108870472C0100D0F8B506000C001500FA
:1016D000FFF7E4FFE308F718F15C0722224001233B
:1016E00093400B4205D1DBB20B433B70FFF7E2FFA7
:1016F000F8BD2100280001F0B5FDF0B583B006006B
:10170000019114001F00FFF7C9FF00E00134BC4243
:101710000CD8E308F518F35C0721214001228A4028
:101720001A42F3D1D2B21A432A7001E00124644272
:10173000FFF7C0FF002C02DB200003B0F0BD019BCF
:10174000002BF9D0089801F08DFD0000034B1B68B9
:1017500002201840431E9841C0B2704700C00640A6
:10176000002307E0054A9A189200BFF35F8F00211B
:10177000116001331F2BF5D97047C046400000347B
:10178000054A1078431CDBB21370172B02D91300E3
:1017900010221A707047C0466904002000B583B05B
:1017A0000100044B00931F2318220348FFF7A5FFF5
:1017B00003B000BD1493001074140020074B9B6805
:1017C000103080001950BFF35F8FBFF35F8F044B61
:1017D0000021196082F310887047C04600ED00E0D8
:1017E000240100D010B5091A081F0A4B9C46614419
:1017F000094A914208D8C30706D440104005400D5D
:10180000064B184380B210BD054B064A9921064885
:1018100001F08EFCFC070000FE0F000000E0FFFF5F
:1018200030930010CC9500106093001010B5091A89
:1018300004394C08090B08D14905490D064A1143E2
:101840000180064B2343438010BD054B054AA1216F
:10185000054801F06DFCC04600F0FFFF00F8FFFFF7
:10186000DC930010A09500106093001001238340CA
:10187000034A10681840431E9841C0B27047C046E2
:1018800000E100E0002904D0034B1860034B18600E
:101890007047034B1860FBE780E200E000E100E0E6
:1018A00080E100E010B5012383401800FFF7EAFF54
:1018B00010BD000001238340014A13607047C046F9
:1018C00000E200E0024B9B6810308000C058704777
:1018D00000ED00E010B5FFF7F5FF002805D0054B3F
:1018E000C01A2F2803D8012010BD0020FCE70020DB
:1018F000FAE7C0466C04002070B504000D00EFF359
:10190000108672B60C4B1B68002BFBD0BFF35F8FA9
:101910002000FFF7D7FF094B984201D0A84205D11C
:10192000320029002000FFF749FF70BD044B054A33
:101930007C21054801F0FCFB240100D0CD01001002
:10194000EC9300100096001060930010F0B5DE4696
:1019500057464E464546E0B589B08146019115008F
:10196000EFF3108A72B6744B1B68002BFBD0BFF3E9
:101970005F8F724B0027DF57002F40DB7C00E4199C
:10198000A4006F4824180622A2566C4B1A706D4BA7
:101990009A684B4610339B00D35898461E001B1A7A
:1019A0002F2B38D9684B98452FD105AE674B338024
:1019B0007B009B46D8198000614B9846404402301A
:1019C0006349FFF70FFF7080624BB380FF23B37151
:1019D000F571019B07935F44BF0047440ECE0EC7CD
:1019E00001231C43A046524641464846FFF7E6FE07
:1019F00009B0F0BCBB46B246A946A046F0BD564B66
:101A0000564ACD21564801F093FB564B534AD421F8
:101A1000534801F08DFBC04340440C2102F064FFA9
:101A2000002912D101239E43B34633000026DA7900
:101A3000AA4211D90621595600290CDB4A00521836
:101A400092001E003E4B9B18F1E7474B434AE021B2
:101A5000434801F06DFB1E00002E3BD005AB434A0E
:101A60001A80813A5A800623F3560293002B18DA23
:101A7000BD20000205AB9B469880029A9A71DD71E9
:101A8000019A0792301D2100FFF7ACFEB080B771BC
:101A90007B00DB199B002A4FFF185B4607CB07C76B
:101AA000A1E77800C0198000254BC0180430321D12
:101AB000B388D90A1C2907D15B05591502314900A1
:101AC0005118FFF78FFED5E7294B2A4AA721244852
:101AD00001F02EFB05AE1D4B33807B000293D8191D
:101AE0008000174A9046020042440392901C184915
:101AF000FFF778FE7080039A101D5946FFF772FEBB
:101B0000B0801D4B5A464146521A524153431B0D59
:101B1000B371F571019A0792029B9C466744BF001E
:101B200047440ECE0EC7114B5A461380813B53805B
:101B300001231C43A04656E7240100D0DA1B0020F5
:101B40006C04002000ED00E0CD01001000A1FFFFBB
:101B50009C04002000BDFFFF24940010E8950010B5
:101B6000609300104C940010749400100148000021
:101B7000E8940010D8950010AAAA0000F0B5CE464F
:101B8000474680B583B006000D00EFF3108872B6AB
:101B9000564B1B68002BFBD0BFF35F8F544B9A68EA
:101BA00034001034A300D758524B9F4207D0AF42A5
:101BB00000D199E00197504BFB1A2F2B09D94246CF
:101BC00039003000FFF7FAFD03B0C0BCB946B0469B
:101BD000F0BD3000FFF74AFE814600213000FFF7DC
:101BE00061FEBFF35F8FFEF73EFB002801D0844209
:101BF00011D10123019C9C430022A368AB4212D067
:101C00000622A256002A0DDB53009B189B002200DF
:101C1000394CE418F1E72C21384B394AFF31394867
:101C200001F086FA2200AB4257D106256557002DF8
:101C300039DB6B005B199A002F4B9B189A68A260E6
:101C4000DA79E27106229A56A2719B795BB2002B77
:101C500010DABD200002A0806B005B199B00264AB1
:101C6000D318294A11789971157049463000FFF749
:101C700019FEA4E7201D6B005B199B001E4A9B18F0
:101C80001A1D9B88D90A1C2907D15B055B150233F5
:101C900059005118FFF7A6FDDDE71C4B1C4AA72190
:101CA000184801F045FA002812D1002A0ED0FF236F
:101CB0009371184B9380144A1378A371164B0E49F5
:101CC000641A644163431B0D1370CEE7094FF2E7BA
:101CD000201D1249FFF7AAFDC7E76021104B084AF3
:101CE000FF31084801F024FA024F68E7240100D0D0
:101CF00000ED00E0CD0100106C0400200095001004
:101D0000B895001060930010DA1B0020E8940010D2
:101D1000D895001000BDFFFFAAAA0000A60400206D
:101D20002495001070B50400012606432D4BF31ACC
:101D30002F2B28D8FEF797FA00282BD0EFF3108C22
:101D400072B6294B1B68002BFBD0BFF35F8F274D6A
:101D500022002449521A524155432D0D6DB2244B95
:101D60009B6880001B58B3421BD00022032A32D844
:101D700053009B189B001B49CB189B795BB2AB426D
:101D80001FD00132F2E7C2211A4B1B4A49001B48FF
:101D900001F0CEF988211A4B174AFF31174801F09C
:101DA000C7F9134B9B68174A1A50174B1A78A27140
:101DB0001D70BFF35F8F0C4B00221A608CF31088EC
:101DC00070BD08005300991889004118FF268E71D4
:101DD0000E4A8A80E9E7CC210D4B074A49000748A3
:101DE00001F0A6F96C040020240100D0AAAA00008A
:101DF00000ED00E02C950010849500106093001019
:101E000054950010CD010010DA1B002000BDFFFF2B
:101E1000609500100022044B02E0044902C3013225
:101E2000072AFAD97047C04600E400E0808080802D
:101E300000B583B00100D0231B061B680648C018FC
:101E4000064B009305230022FFF757FC002801DB17
:101E50001F23181A03B000BDD41B00206895001082
:101E6000024B9C4661448900016070474000003489
:101E700070B505000C00080000F0CCFD200000F05B
:101E8000D5FE0849200000F015FEFFF779FC064B4F
:101E90009C466044800068602C75A400034BE550AC
:101EA00070BDC046B521001040000034201900204C
:101EB0000A4B1A68EFF3108172B61368002BFCD03E
:101EC000BFF35F8F054B1B68BFF35F8F00221A6063
:101ED00081F3108840BF002000217047A41B002020
:101EE00010B5002922D003681B7B99421ED8174BDE
:101EF0009C466144090183689C4661440C684968BA
:101F0000002A19D003681B7B9A4215D883680F48B2
:101F10008446624412019A18106853680200012036
:101F20008B4201D80ED00020C0B210BD084B094A28
:101F30003B21094801F0FCF8054B064A3B210648C5
:101F400001F0F6F8A242EFD8EDE7C046FFFFFF0F21
:101F5000A8960010449900103096001010B5002982
:101F60001ED0037B99421BD84B005B18033B0468CF
:101F7000A4466344002919D0002A1DD0914221D0E3
:101F8000002A25D0047BA24222D804685000801881
:101F9000033820188170197800291FD11A7010BDDC
:101FA000104B114A6821114801F0C2F8104B114A38
:101FB0006F310E4801F0BCF80F4B0E4A70210B48F0
:101FC00001F0B6F80D4B0B4A7121084801F0B0F84A
:101FD000044B054A6821054801F0AAF841701A70BF
:101FE000DDE7C046DC960010B0990010F8960010AE
:101FF000809700108C9900108C9700109897001013
:1020000070B506000D001400002914D0002A14D069
:10201000806873689847002806D0220029003000A5
:10202000FFF79CFF280007E02A0021003000FFF79F
:1020300095FF200000E0100070BD0800FCE70000E4
:10204000F0B583B00500009201930AAB1C780BAB8E
:102050001F78002C26D003685A7B944207D10123B5
:10206000002B19D1002C3BD1200003B0F0BD002C77
:102070000CD01A7B944209D81A6863001B19033BE1
:10208000D3189B78002BEBD00123E9E73E4B3F4A66
:1020900068213F4801F04CF83E4B3F4A65213F48DC
:1020A00001F046F803689C7B002CDBD012D01A7B31
:1020B00094420FD862001219033A19688C466244A0
:1020C00051789973002900D1D9730023937053700C
:1020D0001370C7E72C4B2D4A68212D4801F028F8D2
:1020E000002C3AD02B681B7B9C4236D82C4BE31833
:1020F0001B01AA6894466344009A1A60019A5A60C8
:10210000089A9A60099ADA602E68002C2BD030D099
:10211000337B9C422DD863001B19033B32689446E5
:10212000634400229A705A701A70717B220030004A
:10213000FFF766FF7073844200D095E7287D009A10
:10214000019B00F0FFFC061E01D0002F17D00C9B56
:10215000002B00D188E71E7086E7124B124A3B2104
:102160000E4800F0E5FF114B114AA521084800F088
:10217000DFFF054B054A6821054800F0D9FF2868B4
:10218000210000F007FFE2E7DC960010B099001094
:10219000F8960010B0970010BC990010309600100F
:1021A000FFFFFF0FA8960010449900102C96001016
:1021B000A0990010F0B5DE4657464E464546E0B5BC
:1021C0008BB00990002308938200B24BD658370099
:1021D00032E0B14BB14A3F21B14800F0A9FFB14B09
:1021E000B14A3B21B14800F0A3FFB14BB14A8C2169
:1021F000AE4800F09DFFB04BAE4A9021AB4800F0D6
:1022000097FFA84BAD4A4021A84800F091FF2A68EB
:102210006B68099800F096FC00239A4698467B6804
:10222000BFF35F8F00221A6086F310884346002BAD
:1022300051D1002800D126E100F0F8FB02000B1E6E
:10224000C7DB00200021069007917868EFF3108625
:1022500072B601680029FCD0BFF35F8F39688846E9
:102260004C7B002C32D0BAD0097B8C42B7D8944931
:1022700065182D01B9688C46654428686968801A1C
:1022800099410029C3DC01D10028C0D1002140467A
:1022900000F076FEA042A8D12A686B6806920793E8
:1022A000AB689846EB689A464346002BA3D0002CB7
:1022B000A7D03B681B7B9C42A3D8631EFA68D35C03
:1022C00008931B02184338610020A8E700239A46B0
:1022D00098460020A3E7089B1B02234399465146DA
:1022E0001800C04705000E007A68EFF3108B72B635
:1022F000136859424B41D9B2002BF9D1BFF35F8F1C
:10230000002E26DB002E52DD3B69002B53D04B45BF
:1023100072D100F08BFB02000B1E73DB0100180072
:1023200052197341984202D804D1914202D9012234
:102330005242D317002B6BDB002104910131039132
:10234000029451460191414600913800FFF778FE12
:1023500049E03B69002BD5D04B451CD1069A079B21
:1023600010001900521BB341994202D804D1904287
:1023700002D901225242D317002B12DB0021049113
:102380000131039102945146019141460091380078
:10239000FFF756FE27E04B4B464A9F21434800F08B
:1023A000C7FE3D4B3D4A3F213D4800F0C1FE002E97
:1023B00001D1002DA8D13A68002C45D0537B9C4216
:1023C0002CD1012100293FD1D37B002B42D1D473E2
:1023D000002C52D03B681B7B9C424ED8FA68013CD3
:1023E000135D0133135500233B617A68BFF35F8FA0
:1023F00013608BF310881FE7324B2E4AA2212B4823
:1024000000F096FE244B254A3F21254800F090FE1F
:10241000214B224A3F21224800F08AFE002C0DD099
:10242000137B9C420AD863001B19033B1068844647
:1024300063449B78002BC5D00121C3E7224B234A7C
:102440006821234800F074FE224B234AF6212048DD
:1024500000F06EFE002B0AD0117B8B4207D859008A
:10246000CB18033B11688C4663445C70AFE7164B96
:10247000164A6821164800F05BFE0A4B0F4A4021BD
:102480000A4800F055FE0BB0F0BCBB46B246A94668
:10249000A046F0BD201900207C8C0010109900107F
:1024A000D08C0010A89600104499001030960010AF
:1024B000D897001028990010F09700106899001024
:1024C000FFFFFF0FFC970010DC960010B099001082
:1024D000F8960010389800107C99001010B50A4B3F
:1024E0005B68002B04D00A210848FFF7B9FC10BD37
:1024F000054C2300064A1021206800F061FC0321EE
:102500002000FFF7B5FCEEE7B4040020A41B002078
:10251000E11E001010B5064B5B68002B01D004488B
:1025200010BD044B044A5C21044800F001FEC04683
:10253000B40400205C9800105099001030960010F0
:10254000F0B5DE4657464E464546E0B58BB0804670
:1025500016001F00149B9A46159B994616AB1B78D4
:102560009B461F2302AA9446634400221A7032E05D
:10257000002809D042461268127B904204D8421EBD
:102580004146C9688A5C48E0434B444A402144487C
:1025900000F0CEFD0798002B75D05B46002B72D063
:1025A0004946D04704000D0003000B4300D171E001
:1025B000002946DB00F03AFA06000F1E55DB3619FB
:1025C0006F41B94202D804D1B04202D90126764205
:1025D000F717002F4FDB43465A68EFF3108472B6AB
:1025E000136859424B41D9B20791002BF8D1BFF380
:1025F0005F8F1F3302AA944663440493002303931E
:1026000002934B4601935346009332003B004046F1
:10261000FFF716FD031EABD1020041464968BFF328
:102620005F8F00250D6084F31088002B29D01F23B5
:1026300002A98C4663441B78002BABD112021043D5
:10264000A9E732003B00361BAF41BB4202D804D1A0
:10265000B24202D901267642F717002FBBDA114B9E
:10266000114A3F21114800F063FD0E4B0E4A3F21F5
:102670000E4800F05DFD0B4B0B4A3F210B4800F06C
:1026800057FD012040420BB0F0BCBB46B246A94604
:10269000A046F0BD0798F6E7A896001068990010CC
:1026A000309600107C8C001010990010D08C001017
:1026B000F8B504004268EFF3108572B6136858420B
:1026C0004341D8B2002BF9D1BFF35F8FCBB2226860
:1026D000567BB3421BD10120002848D02069884294
:1026E0002BD0090AC9B2002B2ED02068007B834270
:1026F0002AD8581EE668305C88422BD000206368D8
:10270000BFF35F8F00221A6085F31088F8BD002B9D
:102710000DD0167BB3420AD85E00F618033E176848
:10272000BC466644B678002ED6D00120D4E7134BC1
:10273000134A6821134800F0FBFC8521124B134A11
:102740004900134800F0F4FC124B134A4021104892
:1027500000F0EEFC1900100000F01CFC0028CED1A7
:1027600012210E4B094AFF31094800F0E1FC2369B0
:102770008B42C4D100232361C1E7C046DC96001020
:10278000B0990010F896001080980010F89800108A
:1027900030960010A896001068990010A4980010B8
:1027A000F0B587B006000F00FDF75DFD00281FD1D2
:1027B00006246442E517A4197D41BD4202D803D125
:1027C000B44201D900240025002D14DB04940595A2
:1027D00000F02CF902000B1E13DBA41A9D41002D02
:1027E00017DC14D03000390000F02CF907B0F0BD30
:1027F000234800F037FD234B234A3F21234800F0B4
:1028000097FC204B204A3F21204800F091FC002CEF
:10281000E8D0FFF77FFE0023029301931C4B009347
:10282000049A059BFFF78CFE002818DADAE70023EC
:1028300000E00023002BD5D1164B1A68EFF310816E
:1028400072B61368002BFCD0BFF35F8F114B1B686F
:10285000BFF35F8F00221A6081F3108820BF0499B4
:10286000059A0D4B5B6A9A42E3D80B48806A88420E
:1028700003D29A42DBD00123DCE70123DAE7C0462A
:10288000A89800107C8C001010990010D08C0010BB
:10289000B11E0010A41B002000400540F8B5040044
:1028A0000D0000F0C3F802000B1E10DB2000290011
:1028B000801859418B4202D804D1824202D90120AA
:1028C0004042C117002908DBFFF76AFFF8BD064B3D
:1028D000064A3F21064800F02BFC034B034A3F21E8
:1028E000034800F025FCC0467C8C001010990010B5
:1028F000D08C001010B5FA2292000023002102F0C3
:1029000099FBFFF7CBFF10BD70B584B006000C003B
:10291000FFF700FE002302930193194B009332004E
:102920002300FFF70DFE051E11DD20BFFFF7F2FDAE
:102930002900FFF7BDFE134B5B6A9C421BD8114A6E
:10294000926AB2421AD29C4213D0012014E00D4B7D
:102950005B6A9C4209D80B4A926AB24207D29C42F7
:1029600001D0012008E0002006E0002004E0012062
:1029700002E0002000E0002004B070BD0120FBE771
:10298000B11E00100040054070B5EFF305833F20F5
:1029900018401038EFF3108C72B6194B1B68002BDF
:1029A000FBD0BFF35F8F012319008140154A5163AB
:1029B000154A12781400C440234214D0114B5C6AAB
:1029C0008300124D5B599C4206D38300104C1B5967
:1029D0008A430D490A7007E00A4A031D9B00995873
:1029E0009950002300E00023BFF35F8F044A0021C9
:1029F00011608CF31088002B00D0984770BDC04642
:102A0000280100D000400540DE1B0020B01B002044
:102A10006413002010B50100024A0348FEF754FE7B
:102A200010BDC046E0990010D91B0020044B5B6A22
:102A3000034A906A1900536A9942F9D17047C04617
:102A400000400540084B5B6A01E0074B5B6A8B4224
:102A5000FBD301E0044B5B6A8B4203D1024B9B6AC0
:102A60008342F7D37047C0460040054070B504006C
:102A70000D00FFF7DBFF02000B002000290080188B
:102A800059418B4202D804D1824202D901204042EE
:102A9000C117002902DBFFF7D5FF70BD024B034AC7
:102AA0003F21034800F044FB7C8C0010C49A0010C6
:102AB000D08C001070B504000D00EFF3108672B6D4
:102AC0001B4B1B68002BFBD0BFF35F8F002D1CD06E
:102AD0002000FEF7F7FE174B83420BD019002000B1
:102AE000FEF70AFF01212000FEF7DCFE0123A340D0
:102AF000114A1360A400114BE550BFF35F8F0C4BDC
:102B000000221A6086F3108870BDA2000B4B0021D2
:102B1000D1500122A2400A490B7893430B7005491A
:102B20002000FFF72BF800212000FEF7BBFEE4E7B2
:102B3000280100D089290010386005406413002066
:102B4000DE1B0020F0B5DE4600B584B004001500A1
:102B500001921E000293FFF769FF03958E4202D88F
:102B60004ED185424CD9EFF3108B72B6274B1B68C0
:102B7000002BFBD0BFF35F8F254A17780125A540B6
:102B8000EBB23B431370234B5D63221D920001990E
:102B9000D150A2002049029850501B6A2B4212D1FA
:102BA0001C4B1B6C2B4208D00020BFF35F8F174BD0
:102BB00000221A608BF3108823E0184B184AC121B9
:102BC000184800F0B5FAFFF731FF8E4214D802D151
:102BD000039B834210D80E4B1B78BB420ED00D4B8B
:102BE0001D625D631F2004400123A3400E4A136051
:102BF000074B1F701E38D8E70020D6E70120D4E726
:102C0000012004B080BCBB46F0BDC046280100D006
:102C1000DE1B002000400540B01B0020049A00107D
:102C2000A89A0010289A001080E200E0EFF3108CC0
:102C300072B60B4B1B68002BFBD0BFF35F8F0123D9
:102C40008340084A136208490A789A430A70BFF31E
:102C50005F8F034B00221A608CF310887047C046C8
:102C6000280100D000400540DE1B002010B50029DF
:102C70001ED0037B99421BD84B005B18033B0468B2
:102C8000A4466344002919D0002A1DD0914221D0C6
:102C9000002A25D0047BA24222D804685000801864
:102CA000033820188170197800291FD11A7010BDBF
:102CB000104B114A6821114800F03AFA104B114AA2
:102CC0006F310E4800F034FA0F4B0E4A70210B485A
:102CD00000F02EFA0D4B0B4A7121084800F028FA3B
:102CE000044B054A6821054800F022FA41701A7029
:102CF000DDE7C046DC960010089C0010F896001036
:102D000080970010F49B00108C970010989700108B
:102D100070B506000D001400002914D0002A14D04C
:102D2000806873689847002806D022002900300088
:102D3000FFF79CFF280007E02A0021003000FFF782
:102D400095FF200000E0100070BD0800FCE70000C7
:102D500010B50023437301338373037BC3730123D3
:102D6000027B9A4214D9002B0CD0027B934209D8E3
:102D70005A00D218033A01688C4662440133DBB230
:102D80005370EDE70B4B0C4A68210C4800F0D0F96A
:102D9000002A09D0924207D8016853009A18033AD2
:102DA0008A180023537010BD024B034A6821034860
:102DB00000F0BEF9DC960010089C0010F896001098
:102DC00010B5017342608360FFF7C2FF10BD0000C1
:102DD00070B50400081E00D170BD002934D0237BDB
:102DE000994231D84B005B18033B226894466344F8
:102DF0005A78002AF0D02DD0237B9A422AD853004B
:102E00009B18033B21688C4663445D780021597010
:102E1000002825D0237B984222D843001B18033B6F
:102E200021688C4663440021597001002000FFF79F
:102E30006FFF060029002000FFF7CAFF02003100E3
:102E40002000FFF765FFC7E7084B094A68210948DA
:102E500000F06EF9054B064A6821064800F068F953
:102E6000024B034A6821034800F062F9DC96001027
:102E7000089C0010F896001070B505000C001600B4
:102E8000002928D02DD0037B99422AD84B005B180B
:102E9000033B0268944663445A78002A27D19A7803
:102EA000002A2AD11978FFF793FF0300002E03D0E0
:102EB000EA7B002A27D1EC73002B37D1002C49D0B4
:102EC0002B7B9C4246D82B6861000C19033C1C19D3
:102ED0000023637070BD224B224A3821224800F043
:102EE00027F9224B224A6821224800F021F9224B7F
:102EF0001C4A3A211C4800F01BF9204B194A3B217F
:102F0000194800F015F9002A0AD0297B8A4207D80F
:102F100051008A18033A29688C4662445470CAE703
:102F2000124B134A6821134800F002F9002B0BD012
:102F30002A7B934208D843001B18033B2A68944617
:102F4000634400229A70B9E7084B094A682109488E
:102F500000F0EEF8054B064A6821064800F0E8F854
:102F6000DC9A0010E09B0010E49A0010DC96001040
:102F7000089C0010F89600105C9B0010849B0010C9
:102F800070B504000A00457B2900FFF775FF6073E8
:102F9000280070BD70B50400002967D0437B8B42C8
:102FA0000ED0002911D0037B99420ED84B005B183C
:102FB000033B0268D0188378002B0CD1002056E028
:102FC0000121FFF7DDFF012051E0294B294A68214B
:102FD000294800F0ADF8002B20D0227B93421DD869
:102FE0005A00D318033B2268D2182568EB5C8B4249
:102FF0001AD0002B1BD0227B934218D85A00D3182A
:10300000033B2268D21853788B4216D0002BF0D1A4
:103010001A4B1B4A67211B4800F08AF8144B154ACB
:103020006821154800F084F84378137007E0104BCE
:10303000104A6821104800F07BF843785370002351
:103040008370437001222000FFF716FF0200617BAE
:10305000814205D02000FFF75BFE6073012006E08F
:10306000094B074A6D21074800F062F8002070BD47
:10307000DC960010089C0010F89600106095001077
:10308000C89B0010E49A0010A89B001010B5040023
:10309000FEF776FB01002000FEF7E2FEFF2323711E
:1030A000BFF35F8F10BD10B50400FEF769FB010090
:1030B0002000FEF7D5FEFF23237100236371BFF3C9
:1030C0005F8F10BD034B9C46614489000160BFF3D4
:1030D0005F8F70474000003410B504000120FEF7F8
:1030E0005DFB01002000FFF7EDFF10BD00BEFDE716
:1030F00003000A4A1268002A08D0084A1068C31858
:10310000074A9A4206D3054A13607047034A0549A5
:103110001160F2E701204042F7E7C0461015002099
:1031200000000420E01B002010B5FFF7DFFF0000C7
:1031300010B582B00C001900002A0CD0084B002AF0
:103140000BD00192009323000200064802F090F990
:103150000120FFF7CBFF044BF1E7034AF1E7C0463C
:103160001C9D00102C9D0010088F001070B52B4B7B
:103170002B4A1A602B4B2C4A1A602C4B9A682A4B0C
:103180009343FAD12A4C01E008CC9847294B9C4242
:10319000FAD300F001F9234B274A1A60234B9B68AE
:1031A000DB43DB01FAD1254B40229A675A671A6745
:1031B000DA66234C09E0234B234A83212348FFF797
:1031C000B7FF2000FFF762FF0834214B9C4209D271
:1031D0002368002BF5D0012BEDD12000FFF763FF12
:1031E0000834F2E71B4CA1681B4DC022280001F0F7
:1031F000AFFFA560FDF737F8002800D000BEFEF74E
:10320000AFFAFEF707FEFFF769F9144C01E008CCAE
:103210009847134B9C42FAD370BDC04600E0004073
:10322000BFCDFBFE00F00040FE7F3C0000C0004030
:10323000880D0020980D0020FFFFFF0100F00140E5
:10324000800D00205C9D00100C9E00107C9D0010E5
:10325000880D002000ED00E000000020980D002007
:10326000A80D00200FB400B583B0084802F0CEF8D6
:10327000049B002B07D005A90191180002F0D6F895
:10328000034802F0C3F80120FFF730FFFC9D001057
:10329000D4910010F8B5DE4657464E464546E0B597
:1032A00005000F0092460A9A93424ED31A0E914699
:1032B0001E020A9A00233000494601F057FB80465F
:1032C0006C006419A4002F4B9C46644463688342DD
:1032D00000D260602B1FDBB29B46012B3BD9C02381
:1032E0009B012343802212011A60AB00264A9958A1
:1032F000002905D0506901F0F7FA01300138FDD1FD
:1033000053465A0123685A40E0231A4080235B0148
:1033100023431A605A46012A28D980239B0123435C
:10332000802212011A604346636042460023300047
:10333000494601F01BFBAD00134B58510120F0BC76
:10334000BB46B246A946A046F8BD104B104A2D21F7
:103350001048FFF7EDFE012FC1D1C0239B0123438D
:1033600003221A60A368DB07FCD5C9E7216879400E
:1033700003220A401A60A2680123BB401342FAD01C
:10338000CBE7C04600800040781400201C9E00104F
:10339000B49E0010309E001030B583B00C2000F0B9
:1033A00021F9FEF7D3F900280DD0002304E099009D
:1033B0002D4A2E4888500133092BF8D92A4B2C4A24
:1033C0005A6203B030BD2B4B00229A6700F07CF9A3
:1033D000294B01221A60274B5B6C012BFBD1274B39
:1033E00003221A60234B9B6B012BFBD1013300930B
:1033F0000433234A0121234800F054F805230093A5
:10340000214A0121214800F04DF8214B0093002270
:1034100002210420FFF73EFF1E4D00952B000022E5
:1034200001210520FFF736FF104C009423000022F5
:1034300000210720FFF72EFF009423000022002127
:103440000820FFF727FF0A4B0093230000220021EA
:103450000920FFF71FFF00952B0000220021062006
:10346000FFF718FFADE7C04678140020006CDC02BF
:103470001BB70000008000403CB0004030B000406E
:10348000002F685900800240008C864700C002402F
:10349000001BB700405973078000014BC0587047AC
:1034A00078140020F0B5C64600B504000F00904621
:1034B0001D000C2001F018FA06003D4A42443D4B25
:1034C0009A4243D843011B1A9901C91AC900091825
:1034D0008901404601F008FA0200103A98235B0087
:1034E0009A4239D86B1E062B3CD8069B013B062B13
:1034F00038D8069B9D423BD343461A09B2423DD37E
:103500002D04069B1E0335432368002B3CDB2A4B0E
:103510009C424AD080225201284B1A60284B1A60E4
:10352000284B9B6811009943FAD12760A060231DA6
:10353000C02292011A43212313602368002BFCDA76
:10354000E5600823136080BCB846F0BD1E4B1F4ADF
:1035500011211F48FFF7ECFD1E4B1C4A19211C4886
:10356000FFF7E6FD1C4B194A1C211948FFF7E0FD47
:103570001A4B164A22211648FFF7DAFD184B134A58
:1035800025211348FFF7D4FD22683F231340BB4297
:10359000BDD1A3681B051B0D8342B8D1E368EE22A1
:1035A000D2021340AB42B2D1CDE780229201B3E701
:1035B00080E84BD380F8A93200C0024000E0004010
:1035C00000F0004000C00040C49E00103CA000106D
:1035D000249F0010A09F0010BC9F001008A00010A6
:1035E00020A0001080239B000343014AD362704750
:1035F00000800540024B1A68024B5A607047C04673
:10360000141900200080054010B50200164B8020E0
:10361000C0051860154B1648186000290AD0154BD4
:10362000E021C9041960002A09D1124B8022120638
:103630001A6010BD0C4BE021C9041960F3E7530177
:103640009B1A9800801800010B4B186080235B04C4
:10365000984202D3084B094A1A60FFF7CBFF054B8B
:103660008022D2051A60E4E700B00540082001403E
:10367000FCFF010000A0054014190020FFFFFF001F
:1036800010B5030010000C4A8024E4051460002BE0
:103690000DD001221343094A094CD461094C5C4006
:1036A0001462516293620021FFF7AEFF10BD034B1D
:1036B0000022DA61F7E7C04600B00540008005400F
:1036C000D3C007B02D3FF84F064BAA2212011A6053
:1036D0002F22DA60044B054A1A60024B5B68002B0C
:1036E000FBDA7047004002400060024000B0FA0080
:1036F000704710B5002802D00B684968984710BD84
:103700000100002007E083001B185B00501C0860CC
:103710001078C01830380A681378303BDBB2092BB8
:10372000F1D97047F0B5DE4657464E464546E0B5FE
:1037300083B093461F000C9B9A460D9C0E9B9946A6
:103740000F9B9B0703D0B8460F00060022E00192B2
:10375000A34688464E46B9460700B44207D2551CD8
:103760004B4641462020B84701342A00F5E73D008A
:103770004F465C46019B9B46B1464646B8463700DD
:103780002E0007E0013C551C5346185D43463900A6
:10379000B0472A00002CF5D135003E0047460F9B6C
:1037A0009B0707D4100003B0F0BCBB46B246A94645
:1037B000A046F0BDB0464E46B9462F005D46531BAD
:1037C000B342EFD2541C4B4641462020B84722005A
:1037D000F5E7F0B5CE46474680B585B094469846A5
:1037E0000C9D0D9C0EAB1B789946109A119B129E56
:1037F000B7071CD4002B0CD0F7070AD54F46002F73
:1038000002D10C37374204D0013B02E030272F555C
:103810000134944201D21F2CF8D9F70707D59C42F6
:1038200005D21F2C03D830272F550134F5E7F706B2
:1038300015D5770505D4002C03D0944224D09C42A2
:1038400022D00F9A102A2BD00F9A102A30D00F9A1C
:10385000022A35D01F2C02D830222A5501341F2CC1
:1038600005D84A46002A31D02D222A550134039624
:1038700002930194009543466246FFF753FF05B05B
:10388000C0BCB946B046F0BD621E012C06D00F9FE9
:10389000102F01D01400D4E7023CD2E71400D0E787
:1038A000B206D1D41F2CCFD878222A550134D1E7C3
:1038B000B206CCD51F2CCAD858222A550134C9E7E4
:1038C0001F2CC7D860322A550134C3E7720703D5CD
:1038D0002B222A550134CAE73207C8D520222A559F
:1038E0000134C4E7F0B5DE4657464E464546E0B5DE
:1038F00093B081468A46089209931CAB10CB1B7883
:103900009B461E9D219B9846002C03D110234246C6
:103910009A4390468023DB0046461E4042461A42A8
:1039200012D0002C22D000260EE03033D9B2771C02
:103930000AAB99552900200000F0D6FFAC4216D3FF
:103940001F2F14D83E0004002900200000F0CCFFF7
:10395000CBB2092BE9D94246920605D54121C918B7
:10396000C9B20A39C9B2E2E76121F8E72700434644
:103970000693209B05931F9B049303955B4602933C
:1039800001970AAB0093099B089A51464846FFF7F6
:1039900020FF13B0F0BCBB46B246A946A046F0BD1E
:1039A000F0B5DE4657464E464546E0B595B0089020
:1039B00009910A920B931E9E1F9C20AB1B789B467D
:1039C000229B9946239D269B9A463300234303D18D
:1039D000103352469A4392468023DB0057461F40DD
:1039E00052461A4219D0330023432DD0002714E049
:1039F0003033DAB27B1C98460CABDA554A462B00C2
:103A00003000210000F0B2FFA5421FD819D0434674
:103A10001F2B1BD8474606000C004A462B003000DF
:103A2000210000F0A3FFD3B2092BE1D95246920640
:103A300005D54122D218D2B20A3AD2B2DAE76122CF
:103A4000F8E7B145E3D901E00023984653460693D1
:103A5000259B0593249B04934B4603935B4602935B
:103A6000434601930CAB00930B9B0A9A0999089863
:103A7000FFF7AFFE15B0F0BCBB46B246A946A04664
:103A8000F0BD0000F0B5DE4657464E464546E0B56F
:103A900091B083468A460C9298461A9C08941B9DC6
:103AA000099522002B002000290001F0DEF90028F2
:103AB00000D0E5E001225242D74B2000290001F05E
:103AC000CFF9002800D0DBE001225242D34B200086
:103AD000290001F0AFF9002800D0D1E00022002336
:103AE000089E3000099D290001F0A4F9002800D0AB
:103AF000DDE008980999069007918023DB001E9A63
:103B00001A400D921E9A1A4201D106231C93069860
:103B1000079904000D000A000600024300D1D1E01D
:103B2000080D4005400DBE4CA44660440A03120B2C
:103B3000BC4B13431F0001F0ABF9BB4ABB4B01F078
:103B40003AF9BB4ABB4B01F017F904000D00002203
:103B5000B94B3000390001F00AF9B84AB84B01F00E
:103B60002AF902000B002000290001F005F901F0FC
:103B7000A7F9814601F08CF904000D00B14AB24B5F
:103B800001F019F90022B14B01F0F6F801F098F9B3
:103B90000600AF4AAF4B2000290001F00CF90400E9
:103BA0000D00300001F074F9AB4AAC4B01F003F9A1
:103BB00002000B002000290001F0D9F804000D00DC
:103BC00002000B0001F0F7F80A900B91A44BF318D8
:103BD00000261F0522002B002000290001F0CCF850
:103BE0000E900F9122002B0000208021C90501F0CA
:103BF000BEF804000D0000229A4B0A980B9901F0C0
:103C0000C0F80022984B01F0B7F802000B000A98A8
:103C10000B9901F0B6F80022944B01F0ADF80200C8
:103C20000B000A980B9901F0ACF802000B00200081
:103C3000290001F0A1F802000B000E980F9901F085
:103C4000A0F80022774B01F097F832003B0001F01A
:103C5000B2F806000F0004000D00069A079B01F061
:103C6000FFF8002830D001235B429C46E14400224B
:103C70007D4B3000390001F084F804000D0023E092
:103C80001E9B04931D9B03931C9B0293089A099B04
:103C90000092019343460C9A5146584600F0FCF8B6
:103CA00011B0F0BCBB46B246A946A046F0BD002309
:103CB000002406930794069680231B069C466544C1
:103CC00007951AE7002399464B466333C62B1ED847
:103CD00004261E9B1B0526D52B0023430FD0644AC8
:103CE000644B0698079901F0B3F8002879D00022B8
:103CF000614B0698079901F09DF8002871D01C9B34
:103D00004B4506DD4A46981A431E1C9303E00526E0
:103D1000DFE700231C938023DB001E9A1A431E92C8
:103D20000026002399461D9B9E4264D29F1B0223BE
:103D30001E9A1A400A921E9A134202D0002E00D0F8
:103D400000274B46002B07D022002B00069807992E
:103D500001F017F8069007910022002308980999AE
:103D600001F068F8002848D1444B1E9A1340049390
:103D700003971C9B0293069B079C00930194434668
:103D80000C9A5146584600F087F8002E00D187E77C
:103D90001E9B9B063DD54525441C434602005146CB
:103DA0002800D8474B46DA179B1853400522059246
:103DB000013E0496002203920A3202924A46D00F34
:103DC000019000934346220051465846FFF78AFD72
:103DD0000A9B002B00D163E702005F460C9E1D9DED
:103DE00054E01C9B002B9ED00D9B002B9BD01C9B5A
:103DF000013B1C9397E7002799E7069C079D22004B
:103E0000290080200006844661440B000692079337
:103E1000AAE76525C0E7C046FFFFEF7FFFFFEFFF82
:103E200001FCFFFF0000F03FFB799F501344D33F9C
:103E3000B3C8608B288AC63F0000F83F61436F63B8
:103E4000A787D23F71A379094F930A400000E03F52
:103E50001655B5BBB16B0240EF39FAFE422EE63F74
:103E6000FF03000000002C40000024400000184028
:103E70002D431CEBE2361A3F80842E41FFF7FFFFF3
:103E8000541C434651462020B8472200931BAB42A6
:103E9000F6D3100004E7C046F0B5DE4657464E465E
:103EA0004546E0B595B00690079193469946209F08
:103EB0001E9A1F9B1000190000F0D7FF002831D177
:103EC00001225242BF4B1E981F9900F0B3FF0028F9
:103ED00037D101225242BC4B1E981F9900F0C0FFFF
:103EE00000283DD10022B94B1E981F9900F0B8FF61
:103EF000002850D10022B64B1E981F9900F09AFF5F
:103F0000002848D1002200231E981F9900F092FF3C
:103F1000002850D100239846229B5B0500D4B6E0D0
:103F2000002458E0229B0393219B029303230193D7
:103F3000A84B00934B465A4607990698FFF7F2FBA9
:103F40000EE1229B0393219B029304230193A24B36
:103F500000934B465A4607990698FFF7E3FBFFE0AC
:103F60000423229A1A4022990B4210D09B4B002A1C
:103F70000FD004222299039121990291019200937A
:103F80004B465A4607990698FFF7CCFBE8E0944B5E
:103F9000EDE70322EEE7229B0493219B0393029714
:103FA0001E9B1F9C009301944B465A460799069806
:103FB000FFF768FDD4E01E9A1F9B0020002100F04F
:103FC000D6FE1E901F9101239846A5E70CAB302228
:103FD0001A55013F01341F2C01D8092FF6D81E981D
:103FE0001F9900F06DFF050000F052FF02000B006A
:103FF0001E981F9900F0BBFEFA007A4B9B181A68B6
:104000005B680A920B9300F0D6FE0890099100F0CD
:104010007BFF060000F038FF02000B0008980999AA
:1040200000F0A5FE0890099100226F4B00F018FFE8
:1040300000282ED00136300000F026FF02000B00D1
:104040000A980B9900F0FCFE002801D001350026EB
:10405000002F2CD1280000F01BFF02000B001E983F
:104060001F9900F084FE06000F0000225E4B00F056
:10407000E1FE002846D100225B4B3000390000F001
:10408000EFFE00283ED1EB073CD501353AE006278C
:1040900046E70022544B0898099900F0CBFE00280F
:1040A000D6D1002E01D0F307D2D50136D0E7AA46EB
:1040B0001F2C11D8013F0A21300000F015FC651CAF
:1040C00030310CAB19550A21300000F00DFC092EDF
:1040D0000ED906002C00EBE755461F2C0CD87B1E92
:1040E000002F09D00CAA302111551F000134F4E72C
:1040F0002B0055461C00F0E71F2C03D80CAB2E22DA
:104100001A5501341F2C10D80A21280000F0C4FBD6
:10411000661C30310CAB19550A21280000F0BCFB9D
:10412000051E01D03400EDE734000323229A13402A
:10413000012B1CD01F2C06D84346002B32D00CABD1
:104140002D221A550134229B0393219B0293019443
:104150000CAB00934B465A4607990698FFF7E2FAD4
:1041600015B0F0BCBB46B246A946A046F0BD219BA7
:10417000002B13D04346002B02D10C3313420FD037
:10418000219B013B2193190003E00CAB30221A550F
:1041900001348C42CED21F2CF7D9CBE72199F8E716
:1041A0002199F6E7229B5B0704D50CAB2B221A550D
:1041B0000134C8E7229B1B07C5D50CAB20221A553A
:1041C0000134C0E7FFFFEFFFFFFFEF7F65CDCD417B
:1041D00065CDCDC154A0001058A000104CA0001017
:1041E00048A0001040A200100000E03FF0B5DE46FD
:1041F00057464E464546E0B593B082468B469046BC
:104200001193002900D1EBE200275546119B187845
:10421000002800D1E7E2252809D07C1C43463A005B
:104220005946A847119B013311932700EEE701334C
:1042300011930024119A11780B00203BD8B210285A
:1042400003D88300D048C3589F460B00303BDBB2F5
:10425000092B2CD92A292FD000230A93119B1A78D5
:104260002E2A39D000239A46119A1378683BD9B286
:10427000122976D88B00C549CB589F4601231C4391
:1042800001321192D6E702231C4301321192D1E789
:1042900004231C4301321192CCE708231C43013252
:1042A0001192C7E710231C4301321192C2E711A8F3
:1042B000FFF726FA0A90D1E71C9B1A1D1C9218687A
:1042C000002804DB0A90119B01331193C6E70223F7
:1042D0001C4343420A93F6E78022D20014435A1C3F
:1042E00011925A781300303BDBB2092B04D92A2AE9
:1042F00007D000239A46B7E711A8FFF701FA8246D4
:10430000B2E71C9B1A1D1C921868002804DB824629
:10431000119B01331193A7E70020F8E780235B008E
:104320002343511C119152786C2A01D01C0018E0D3
:10433000C0239B001C430131119112E080232343D1
:10434000511C11915278682A01D01C0009E0C02349
:104350001C430131119104E080235B001C430132B6
:104360001192119B18780300253BDAB2532A00D929
:104370002CE29300864AD3589F4680239B001C431F
:1043800001321192EDE780235B001C430132119250
:10439000E7E7782809D0582838D06F2838D0622825
:1043A00038D010239C430A2600E01026582833D02A
:1043B000692803D0642801D00C229443630501D5F9
:1043C0000122944369282AD0642828D0A30500D567
:1043D0009FE0E30500D5B8E0630600D4CAE01C9A6C
:1043E000111D1C911168FF220A4005940A9B049339
:1043F00053460393029600230193009243463A00EA
:1044000059462800FFF76EFA070027E01026CDE78F
:104410000826CBE70226C9E720221443C8E7A305F4
:1044200020D4E30550D4630666D51C9A111D1C9157
:104430001168FF220A40D317D118594005940A9BEE
:104440000493534603930296D20F01920091434680
:104450003A0059462800FFF745FA0700119B01333F
:104460001193D3E61C9BDA1D07218A431100083102
:104470001C91116853689C46DB170C930D930C9AA2
:104480000D9B100048400E90624653400F930E98CB
:104490000F990C9A0D9B801A99410E900F910894D8
:1044A0000A9B07935346069304960023059363469D
:1044B000DA0F02920090019143463A0059462800D3
:1044C000FFF76EFA0700C9E71C9A111D1C911268CC
:1044D000D317D118594005940A9B0493534603936C
:1044E0000296D20F0192009143463A0059462800A5
:1044F000FFF7F8F90700B1E7230605D51C9A111D4F
:104500001C910023D25E96E71C9A111D1C91126823
:1045100091E71C9BDA1D07218A43110008311C9189
:1045200008940A9B07935346069304960023059329
:104530000293136854680093019443463A00594625
:104540002800FFF72DFA070088E71C9A111D1C911F
:1045500005940A9B04935346039302960023019308
:104560001368009343463A0059462800FFF7BAF90A
:10457000070073E723060DD51C9A111D1C911268C4
:104580001204120C31E7C04660A00010A4A0001075
:10459000F0A000101C9A111D1C91126825E74628F6
:1045A0001AD01C9B0733072293431A0008321C922F
:1045B00004940A9A0392524602925C681B68009324
:1045C000019443463A0059462800FFF765FC07006E
:1045D000119B0133119319E620231C43E1E767285F
:1045E00001D0472802D180231B011C43452801D05C
:1045F000472801D120231C431C9B073307229343E8
:104600001A0008321C9204940A9A039252460292AB
:104610005C681B680093019443463A0059462800A1
:10462000FFF730FA0700119B01331193EEE50223E7
:104630001A002240924623421FD001241C9B1A1DBF
:104640001C927A1C9146187843463A005946A8476E
:104650005346002B16D1119B013311934F46D5E5DC
:10466000561C434659462020B847230032005C1CA4
:104670009D42F5D83D001700E0E701233A002F00E6
:104680000A9DF4E74A46A9460A9D06E0571C4346A0
:1046900059462020C84734003A00661CA542F5D888
:1046A0004D469146D7E71C9B1A1D1C921B689946E4
:1046B0005346002B00D1013B4E4601E0013613006A
:1046C0003278002A02D05A1E002BF7D14B46F21A3C
:1046D00010928023DB0026001E401C4203D052456E
:1046E00001D95346109302231A0022400B92234211
:1046F00005D03A0037004C46A946554620E03A001E
:10470000109B5F46B3462E0006E0551C4346390019
:104710002020B04723002A005C1C0A999942F4D853
:1047200035005E46BB46109437004C46A9465546B8
:1047300006E01D000134561C43465946C847320066
:104740002078002804D0002FF4D06B1E002DF0D16B
:1047500017004D460B9B002B03D1119B0133119386
:1047600054E50A9F109B06E0561C434659462020FC
:10477000A847230032005C1C9F42F5D81700ECE7E5
:1047800021231C431C9B1A1D1C921B68009305943B
:1047900008230493534603931023029300230193A9
:1047A00043463A0059462800FFF79CF80700119B42
:1047B000013311932AE57C1C43463A0059462520D3
:1047C000A847119B0133119327001FE57C1C43462A
:1047D0003A005946A847119B01331193270015E56C
:1047E0000A4B9A4610E5AA46474502D343465A1E4D
:1047F00000E03A00434659460020D047380013B045
:10480000F0BCBB46B246A946A046F0BDF13600104A
:1048100000B585B0029003910121009313004A4234
:1048200002A90248FFF7E2FC05B000BDF336001014
:1048300001480421014B1847E004002061480010A2
:1048400010B5010018231B8814221088984710BD4A
:1048500010B5010018231B8816221088984710BD38
:10486000F0B5C64600B507000E00002501239846A6
:1048700000E00135B5420AD2AC003C192068FFF7D0
:10488000DFFF20600028F4D100239846F1E740467E
:1048900080BCB846F0BD0000124A936F9B0815D249
:1048A0009066D166002905D0FFE7FFE7FFE7516F6B
:1048B000106F704704B580210906C21751400028C7
:1048C00000D0C84304F04CF9002104BDF0B5146ECB
:1048D000556E576F166FFFF7E3FF146655665767FF
:1048E0001667F0BD000000D0114A936F9B0813D2E9
:1048F00010665166002905D0FFE7FFE7FFE7516F1B
:10490000106F704704B5002801D00020C04304F0A8
:1049100027F9002104BDC046F0B5146E556E576FDF
:10492000166FFFF7E5FF1466556657671667F0BD0B
:10493000000000D094464E4A926F9208624601D21F
:1049400030E0C046F0B54A4EB56F6D08FCD3346E0A
:10495000756E776F366F00F025F89446444A1466FA
:104960005566576716676246F0BDC0469446404A92
:10497000926F9208624601D258E0C046F0B53C4EB4
:10498000B56F6D08FCD3346E756E776F366F00F0BF
:104990004DF89446364A1466556657671667624660
:1049A000F0BDC046002B24DB11D000293EDA00B553
:1049B000C943404200D1013100F038F8C9434042B8
:1049C00000D10131DB43524200D1013300BD002A46
:1049D000EBD1002801D1002905D00020C90FC9075B
:1049E00001D1C043410800B504F0B2F80022002311
:1049F00000BD00B500290ADBDB43524200D1013380
:104A000000F014F8C943404200D1013100BDC94350
:104A1000404200D10131DB43524200D1013300F06A
:104A200005F8DB43524200D1013300BD002923D1F8
:104A3000002B18D1002A0CD0BC460D4F38667A6680
:104A400000210023FFE7FFE7FFE77A6F386F674633
:104A50007047002801D00748010000B504F078F83D
:104A60000022002300BD02000B000020002170473F
:104A7000000000D0FFFFFFFF002B00D0BFE0130CB1
:104A800028D1002AE7D080B4114F39667A66FFE753
:104A9000FFE730B4040C7B6F396F1B0423433B6684
:104AA0007A66FFE7FFE7FFE7C04684B27B6F3D6FA2
:104AB0001B0423433B667A66FFE7FFE7C0460023FB
:104AC0002C042D0C7A6F386F00196941B0BC704707
:104AD000000000D0F0B594460025140E01D112025A
:104AE0000835140F01D112010435940F01D1920041
:104AF0000235D40F01D152000135D40B0134254FBA
:104B00007C66254C3C660E0C93B2FFE7FFE7FFE79F
:104B10003C6F6643360C7703BE467343DF0B5B0482
:104B2000C01AB941130C7343DB18C91ACE08664387
:104B3000360CB64493B273431F0F1B01C01AB94120
:104B4000130C73431F0B1B05C01AB941860D8F024E
:104B50003E436643360C092D24DB520A7243801A09
:104B60007703460A6643360C16235B1BDE40DF40A4
:104B7000BF1964466643821B704604350633010044
:104B8000D940A840C01900D30131A24206D2002367
:104B9000F0BD0000000000D0FFFFFFFF121B01303E
:104BA000F3D3F1E709277F1BFE406446A2B27243AC
:104BB000801A00D20139220C7243130C1204821A9B
:104BC00099410B007046043513370100F940A840A5
:104BD000801900D30131002B02D1A2420AD2F0BDCC
:104BE000013000D30131121BFAD2013BF8D1A242AD
:104BF00000D2F0BD013000D30131121BF7E7F0B550
:104C00001C0C00D080E00CB400251C0A04D11B024F
:104C1000160E3343120208351C0B04D11B01160F6C
:104C20003343120104359C0B04D19B00960F334390
:104C300092000235DC0B02D192185B4101351C0059
:104C4000971864410134464F7C66464C3C660E0C16
:104C5000FFE7FFE7FFE7C0463C6F6643360C77038C
:104C6000BE4697B27743C01B00D20139C01B00D2A9
:104C700001399FB27743C91BC91B170C77437E04C8
:104C8000FF0B801BB941CE086643360C0C2D33DB7D
:104C9000B644120B1F053A431B0B97B27743C01B58
:104CA00000D201399FB27743C91B170C77433E04EA
:104CB0003F0C801BB941860D8F023E436643292776
:104CC0007F1BFE400C3D7746AF40BF1930BCA2B2FF
:104CD000ABB272437343801A9941220C7243130C96
:104CE0001204801A994102000B000137001BA941F0
:104CF000F9D2781E0021F0BD0C277F1BFE407746BD
:104D00007F0BAF40FF19E0E700245D1C07D0144F74
:104D10007D663966FFE7FFE7FFE7FFE73C6F95B287
:104D20009EB265436643401BB141150C1E0C6543A2
:104D3000664336042F0C3E432D04401BB14199427B
:104D400004D202000B0020000021F0BD01D19042EE
:104D5000F7D3801A994101349942F2D3F6E7000063
:104D6000000000D0FFFFFFFF48404140484018B41A
:104D7000134B5B68019308BD18B4114B1B6801937A
:104D800008BD94460F4A926F920805D2624618B445
:104D90000B4BDB68019308BD0A4AF0B5146E556EE3
:104DA000576F166F6246FFF7F2FF064A14665566A4
:104DB00057671667F0BD18B4014B9B68019308BD97
:104DC000A0190020000000D0FFB5504042405040E4
:104DD00059404B40594000E0FFB5154F4C00640D61
:104DE00003D0BC4204D10C0314D80020090D0905DE
:104DF0005C00640D03D0BC4204D11C030AD800221D
:104E00001B0D1B0501264B4009D44B4003D58B429B
:104E100000D18242FFBD9942FCD19042FFBD0B43BD
:104E2000DB1803431343F5D0C9434918FFBD000005
:104E3000FF07000000B5FFF7CFFF804100BDC0466F
:104E400000B5FFF7C9FF01D9002000BD012000BD5A
:104E500000B5FFF7B9FF01D9002000BD012000BD5A
:104E600000B5FFF7B1FF804100BD012040054A00B9
:104E7000121804D85A00121801D8002070470120D7
:104E800070470020704700000021002805D17047BE
:104E9000C1174840401AFAD0C90713B5064B1B6822
:104EA00098470CBC441CA2401005120B0349091B77
:104EB00009051943114310BDA01A00201F0400006A
:104EC00010B54C00620D8023D218DB00D21A5B05AE
:104ED0007E2A10DD9E3A13DACC17090349081943DC
:104EE0005242D140640001341532202A05DAD04004
:104EF0000843604310BD002010BD0846604310BD4C
:104F0000C80FC018013810BD18B4024B5B6A01937A
:104F100008BD0000A019002018B4024BDB6F0193FC
:104F200008BD0000A019002010B50148FEF79AF94D
:104F300090A2001070B513231C78012C14D0012C02
:104F400014DC022C02DC1F4A1F4B9A641F48FFF737
:104F500077FC1F4B186070BD99001E481A4A885094
:104F600001331F2BF8D9EAE70023FAE71A48FFF7C5
:104F70006FFC05001948FFF76BFC023803789B00B3
:104F80007F2B19DD802229000F4800F0E1F8022C68
:104F9000D7D1134B1A88B5231B029A4209D1114B62
:104FA0001A88114B9A4204D1104B1A88104B9A421E
:104FB000C7D00020FEF756F90E4B0F4A32210F489A
:104FC000FEF7B6F801500010A01900204C33000085
:104FD000A01A0020294F001053440000534600003F
:104FE00054380000D8380000494600009C380000C2
:104FF00059460000A8A2001090A3001008A30010BA
:1050000007B56046002800D100BE01880A0A0230B8
:10501000DF2AFAD1C9B2820804D30288408800048A
:10502000104300E00068024A5050039007BD0000A2
:10503000A019002051434343C9188C46110C83B278
:105040004B4310B4040C614392B280B250436243AC
:105050001C041B0C001910BC59411304120CC0187D
:105060005141614470470000014BDB6F184700005D
:10507000A41A002010B50148FEF7F4F8088F0010BC
:1050800070B513231E781848FFF7E2FB0500012EC8
:1050900011D0012E09DDAB1E1B789B007F2B1DDD7F
:1050A00080222900114800F053F81148FFF7C8FB8F
:1050B000104B186070BD542201000C4800F048F8F5
:1050C000002300E001331F2BE3D89A00074C12594C
:1050D000002AF7D19A0008481051F3E7074B084A15
:1050E00042210848FEF724F853460000A41A002085
:1050F0004C330000A01A002075500010A4A300102B
:105100005CA40010D8A3001010B5040003F0CCF884
:10511000002804D00419034B9C4200D810BD02485B
:10512000FEF7A0F80000042070A4001010B503F0F2
:10513000C5F810BD01480421014B1847F0040020B8
:1051400061480010014B1B6818470000F004002064
:10515000014B5B6818470000F004002010B5FFF712
:10516000D3FF10BD10B5FFF7E1FF10BD10B5FFF77D
:10517000DDFF10BD10B50300080011001B68984743
:1051800010BD0000F8B507000D001600437C002B91
:1051900002D0002400200CE003681100280098478A
:1051A0002DE03B7C10E0022115483B689847601CCD
:1051B0000134B44214DA002CF3DD2B19013B1B78C7
:1051C0000D3B5A425341DBB22A5D0A2AF0D1002B33
:1051D000EED1A042E7DA211A28183B689847E2E7A7
:1051E000B04203DA311A28183B689847002E06DDD2
:1051F000AD19013D2B780D3B5A4253413B74F8BD2C
:10520000B4A5001070B505000368002B16D00C4B38
:105210001C6805E0290004C92000FFF7B3FFE4681B
:10522000002C09D02368002BF9D0064B1B68002BFB
:10523000F0D0A342F3D1EDE700232B6070BDC04650
:10524000081500200C15002070B505000C000B6837
:10525000802B05D021684B1C23606418257170BD1C
:105260000800FFF7CFFFF5E7F0B583B007000E00A9
:105270000092019328E0A368002B04D0310038008D
:105280009847002827DCE468002C06D0134B1D68E3
:10529000002DF0D0A542F6D1EDE70099019A104B10
:1052A0005B6A9A4209D80E48806A88420FD29A42B5
:1052B00001D0012302E0002300E00023002B08D1ED
:1052C00001200021FDF7D2FB064B1C68DCE701231F
:1052D000F4E70120404203B0F0BDC0460C150020A9
:1052E000004005400815002010B582B0D0231B06F1
:1052F00000241C5701A9074803F03AFC002806D1F6
:10530000019B9C4203D0034803F04AFC012002B0F9
:1053100010BDC046800D002010B5024803F010FCFF
:1053200010BDC046800D0020F0B5CE46474680B582
:1053300083B006000D0090461C00FFF7D5FF8146A4
:105340006B1C05D0002C08D0194F1A4B1C6807E0C5
:10535000300003F08DFA0500F4E7174FF5E7E46835
:10536000002C17D02368002BF9D0144B1B68002B9E
:1053700001D0A342F3D12A0031002000B8474346B0
:10538000002BECD06B46D91D0A230B7001222000A4
:10539000B847E4E74B46002B07D16B1E9D41E8B2AE
:1053A00003B0C0BCB946B046F0BDFFF7B5FFF4E7A7
:1053B0007551001008150020855100100C150020B3
:1053C000094A01E00C331A001368002B08D083420D
:1053D000F8D1002907D1C36813600023C36002E03D
:1053E000002900D0106070470815002010B5064B4A
:1053F0001C6801E09847E468002C03D06368002B28
:10540000F8D1F8E710BDC0460815002070B50500BA
:1054100003F02EFA04000023012201002800FFF708
:1054200083FFFFF7E3FF200070BD000070B5A2B05E
:1054300004000E00FFF758FF05008422002101A898
:10544000FFF780FE3300220001A90848FFF7E0F9CA
:10545000040001A8FFF7D6FEFFF7C8FF002D02D118
:10546000200022B070BDFFF757FFF9E74952001046
:105470000FB400B583B004A901C90191FFF7D6FFAD
:1054800003B008BC04B0184710B500F0B3F910BD64
:1054900000B583B00A4B1A685B68012101A8FFF7C9
:1054A000E3FE002803DB012803D101AB187803B029
:1054B00000BD9121034B044A49000448FDF738FE22
:1054C000D8990010F0A40010A4A50010FCA40010AE
:1054D00030B583B004000025FDF7A8FA02000B1ECA
:1054E00016DB12196B41994202D804D1904202D9BD
:1054F00001225242D317002B10DB012101A8FFF734
:10550000B3FE002802DB0FD001AB187803B030BD2A
:10551000094B0A4A3F210A48FDF70AFE064B074A93
:105520003F210748FDF704FE9521064B064A490036
:105530000648FDF7FDFDC0467C8C001078A50010E4
:10554000D08C0010A498001090A50010FCA40010AE
:1055500070470000014B00221A707047DB1B0020CF
:105560004B79FF2B0CD18B79002B0BD1CB79012BF5
:105570000AD1082A0AD98A78054B1A70092000E056
:10558000002070470020FCE70020FAE70020F8E741
:10559000DB1B00200120704770B504000D0003489C
:1055A000FFF74EF9030029002000984755420000FC
:1055B00010B5002926D1117953791B020B431249EA
:1055C00009788B4201D0002010BD5378012B03D005
:1055D000022B10D00020F7E79178D3781B021943F3
:1055E000DB0503D54B0A0120984000E000207F2313
:1055F0001940FFF7D1FF642200210020FEF740F898
:105600000120E1E70120DFE7DB1B0020012303701D
:1056100000487047B8A5001010B50B784878000214
:1056200018438A7812041043CB781B060343962252
:10563000D200934200D010BD00210800FFF7ACFF5C
:1056400030B583B005000C0001A9184803F090FAAA
:10565000002808D1D0231B061B68019A9A4221D04A
:10566000124803F09DFA002001F054FE002807D1F3
:10567000032464420D4803F063FA200003B030BDF8
:10568000002001F069FE002802D103246442F1E702
:1056900022002900002001F06BFE041EEAD1032441
:1056A0006442E7E703246442E7E7C046A81B002002
:1056B00010B50021054803F05BFA002800D110BDA9
:1056C00001F0C0FB014803F03BFAF8E7A81B0020FB
:1056D000F0B5C64600B582B080460D0001A92E483F
:1056E00003F046FA002808D1D0231B061B68019A54
:1056F0009A420FD0284803F053FA002001F00AFE26
:10570000002847D1254B002000211860596022480D
:1057100003F016FA02B080BCB846F0BD01F092FB6F
:10572000002001F039FE002001F0F4FD0028EED049
:10573000002001F0B3FE00281DD0AC42E7DA2E1B9A
:10574000002001F0ABFE0200864200DC3200002A9D
:10575000E4D043461919002001F084FE060001F050
:1057600071FB002001F018FEA419FDF75FF90B4B47
:1057700018605960E1E7FDF759F9084B1E685F684A
:10578000074A002392197B419942C0D8D5D1904253
:10579000D3D9BCE70024D0E7A81B0020A80E002026
:1057A00020A1070010B50A4B1A78D0231B061B68EE
:1057B0009A4207D1074B1878FCF77CF8FA20800052
:1057C000002110BD044B054A32210548FDF7B0FC0D
:1057D000DD1B0020DC1B0020D0A50010B4A60010AB
:1057E000F8A5001010B5024B1878FCF763F810BD4F
:1057F000DC1B002070B584B0D0231B061A782D4B1B
:105800001A702D4B1B7802F08FF82C48FDF73EFCE8
:105810000120FCF70DFBC0B2294C20702949FCF790
:105820006BF820780121FCF73DF80520FCF752F8D1
:10583000041E0BD0002224490520FCF787F8012123
:105840002248FFF7BDFD200004B070BDFCF762FEEA
:105850000600FDF7EBF804000D1E1EDB0100FA2226
:105860009200002312196B419D4202D804D191424B
:1058700002D901225242D317002B14DB01210291DD
:1058800000210191124900913000FCF759FE431E9E
:105890009841C4B20028D6D0D1E70E4B0E4A3F2122
:1058A0000E48FDF745FC0B4B0B4A3F210B48FDF71B
:1058B0003FFCC046DD1B002094AE0010A81B00205A
:1058C000DC1B0020B1560010E55700100005002039
:1058D000A55700107C8C00109CA60010D08C0010E6
:1058E0000048704740A7001000487047ECA6001021
:1058F00010B50400154B1B78002B0ED0002C11D1D5
:10590000134B144A5A80012301335B001BB2C0229F
:10591000920013430E48038010BD11210B4802F082
:10592000D7FBEBE7052C0ED8A4000B4BE458002363
:10593000122BE9D8E25C002AE6D001335900044872
:105940004252DBB2F4E70020E6E7C046C01B00206D
:10595000E01400200904000054A7001002007F207A
:105960001040D209400080184001014BC018704718
:105970001415002010B582B001AB074A1A8000242C
:1059800006E001AB185DFFF7E9FF0123C3700134A6
:10599000012CF6D902B010BD0080FFFF10B5838B3B
:1059A0003F333F229343022915D0124C2268C26034
:1059B000D31823609C0610D10F4C624063408024B2
:1059C0006401A3420FD88906114380231B061943A3
:1059D0004368196010BD5B00E7E7084B084A542193
:1059E0000848FDF7A5FB084B054A56210548FDF779
:1059F0009FFBC04618190020000010506CA7001033
:105A0000C4A800109CA7001030A80010F8B505002D
:105A10000E001400FFF7A2FF7F232B40EF098570D3
:105A20007A427A4142700022C27086838477012FC5
:105A30000DD0DA0012498C466244826082680021EF
:105A40001160002B09D143600E4BC360F8BDDA0032
:105A50000D498C4662448260F0E7012F09D0013B7A
:105A6000DB000A4A9446634443602100FFF796FF37
:105A7000ECE7013BDB00064A944663444360F4E7ED
:105A80008400105000011050800010500C00105085
:105A90000800105010B5002308E00133DA0000219F
:105AA00008481150844662445160DBB20E2BF4D991
:105AB000F022920000210448FFF744FB034B044A04
:105AC0001A6010BD00001050541500201819002055
:105AD00080011050F0B5CE46474680B583B01D4BCF
